{
  "abi": [
    {
      "inputs": [],
      "name": "Deposit",
      "outputs": [
        {
          "internalType": "uint256",
          "name": "",
          "type": "uint256"
        }
      ],
      "stateMutability": "payable",
      "type": "function"
    },
    {
      "inputs": [],
      "name": "GetAccountbalance",
      "outputs": [
        {
          "internalType": "uint256",
          "name": "",
          "type": "uint256"
        }
      ],
      "stateMutability": "view",
      "type": "function"
    },
    {
      "inputs": [
        {
          "internalType": "uint256",
          "name": "_amount",
          "type": "uint256"
        }
      ],
      "name": "Withdraw",
      "outputs": [],
      "stateMutability": "nonpayable",
      "type": "function"
    },
    {
      "inputs": [
        {
          "internalType": "address",
          "name": "",
          "type": "address"
        }
      ],
      "name": "balances",
      "outputs": [
        {
          "internalType": "uint256",
          "name": "",
          "type": "uint256"
        }
      ],
      "stateMutability": "view",
      "type": "function"
    },
    {
      "inputs": [],
      "name": "owner",
      "outputs": [
        {
          "internalType": "address",
          "name": "",
          "type": "address"
        }
      ],
      "stateMutability": "view",
      "type": "function"
    },
    {
      "inputs": [],
      "name": "userDeposit",
      "outputs": [
        {
          "internalType": "uint256",
          "name": "",
          "type": "uint256"
        }
      ],
      "stateMutability": "view",
      "type": "function"
    }
  ],
  "bytecode": {
    "object": "0x608060405234801561001057600080fd5b5061029e806100206000396000f3fe6080604052600436106100555760003560e01c806327e235e31461005a57806332e0341a1461009a57806348146113146100ad5780635b6b431d146100cf5780638da5cb5b146100f1578063ed21248c14610129575b600080fd5b34801561006657600080fd5b506100876100753660046101dd565b60006020819052908152604090205481565b6040519081526020015b60405180910390f35b3480156100a657600080fd5b5047610087565b3480156100b957600080fd5b5033600090815260208190526040902054610087565b3480156100db57600080fd5b506100ef6100ea36600461020d565b610131565b005b3480156100fd57600080fd5b50600154610111906001600160a01b031681565b6040516001600160a01b039091168152602001610091565b6100876101a2565b3360009081526020819052604090205481111561014d57600080fd5b336000908152602081905260408120805483929061016c90849061023c565b9091555050604051339082156108fc029083906000818181858888f1935050505015801561019e573d6000803e3d6000fd5b5050565b336000908152602081905260408120805434919083906101c3908490610255565b909155505033600090815260208190526040902054919050565b6000602082840312156101ef57600080fd5b81356001600160a01b038116811461020657600080fd5b9392505050565b60006020828403121561021f57600080fd5b5035919050565b634e487b7160e01b600052601160045260246000fd5b8181038181111561024f5761024f610226565b92915050565b8082018082111561024f5761024f61022656fea26469706673582212206bcb87237461c6301e0d009c5ad25a518a1be54704c4e06df87fdbd9c997b3d364736f6c63430008110033",
    "linkReferences": {}
  },
  "methodIdentifiers": {
    "Deposit()": "ed21248c",
    "GetAccountbalance()": "32e0341a",
    "Withdraw(uint256)": "5b6b431d",
    "balances(address)": "27e235e3",
    "owner()": "8da5cb5b",
    "userDeposit()": "48146113"
  },
  "id": 0
}